:100000000C948F020C94D6020C94D6020C94D60257
:100010000C94D6020C94D6020C94D6020C94D60200
:100020000C94D6020C94D6020C946D260C943F27A7
:100030000C948E210C94D6020C94D6020C94D60209
:100040000C94D6020C94D6020C94D6020C94D602D0
:100050000C94D6020C94E7210C94D6020C94D60290
:100060000C94D6020C94D6020C94D6020C94D602B0
:100070000C94D6020C94D6020C94D6020C94D602A0
:100080000C94D6020C94D6020C94D6020C94D60290
:100090000C94D6020C94D6020C94D6020C94D60280
:1000A0000C94D6020C94D6020C94D60280058005DE
:1000B000AC05AC0514063206570757073D06D206B5
:1000C000E306E3064707570757075007FB07FB07F9
:1000D0000D080D0804080D080D080D08FB07FB07A7
:1000E00009080D080D080908AC27D327CB28D3270A
:1000F000CB281F284228CB289928A82814001A00AA
:100100000800150017001C0018000C001200130056
:1001100004001600070009000A000B000D000E0085
:100120000F002A001D001B00060019000500110029
:1001300010003600370028002900E000E2002C0003
:10014000E100E5002C00E600E400015159005A00EE
:100150005B005C005D005E005F00600061006200AB
:100160001E021F0220022102220223022402250273
:100170002602270231005400010001000100330073
:10018000340052002D002E00E30046004E004B00CC
:100190004A004D00500051004F00010000047F3F15
:1001A0001F643214643214783C1E1E140A05222384
:1001B000252628292A2C2D2F3032333536383A3B44
:1001C0003D3E4042434547494A4C4E505153555796
:1001D000595A5C5E6062646668696B6D6F717375B5
:1001E00077797B7D7F81838587898A8C8E909294B5
:1001F00096989A9C9E9FA1A3A5A7A8AAACAEAFB1C2
:10020000B3B4B6B8B9BBBCBEBFC1C2C3C5C6C7C90B
:10021000CACBCCCDCED0D1D2D2D3D4D5D6D7D7D8C5
:10022000D9D9DADADBDBDBDCDCDCDCDCDDDDDDDD17
:10023000DCDCDCDCDCDBDBDBDADAD9D9D8D7D7D61F
:10024000D5D4D3D2D2D1D0CECDCCCBCAC9C7C6C5D6
:10025000C3C2C1BFBEBCBBB9B8B6B4B3B1AFAEAC1C
:10026000AAA8A7A5A3A19F9E9C9A98969492908EC7
:100270008C8A89878583817F7D7B79777573716FA0
:100280006D6B6968666462605E5C5A59575553517C
:10029000504E4C4A4947454342403E3D3B3A383632
:1002A000353332302F2D2C2A292826252322FFAA48
:1002B0007F5540000101010101010101010202021B
:1002C0000202020202020303030303030303040402
:1002D00004040404040505050505060606060607CC
:1002E0000707070708080808090909090A0A0A0B85
:1002F0000B0B0C0C0C0D0D0D0E0E0E0F0F0F101026
:1003000011111112121313141415151616171718AC
:100310001819191A1A1B1B1C1D1D1E1E1F20202117
:100320002222232424252626272829292A2B2C2D5E
:100330002D2E2F30313232333435363738393A3B7F
:100340003C3D3E3F404142434445464748494A4C74
:100350004D4E4F50515354555658595A5B5D5E5F40
:10036000616264656668696B6C6D6F7072737577D6
:10037000787A7B7D7E8082838587888A8C8E8F9138
:10038000939596989A9C9EA0A2A3A5A7A9ABADAF62
:10039000B1B3B5B7BABCBEC0C2C4C6C9CBCDCFD14C
:1003A000D4D6D8DBDDDFE2E4E7E9EBEEF0F3F5F8F5
:1003B000FAFDFF0C0379006100730075006900000D
:1003C0000014037200610069006E006B0065006537
:1003D000006200730000000403090409023B0002EC
:1003E0000100A0FA09040000010301010009211124
:1003F0000100012240000705810308000A090401E9
:1004000000010300000009211101000122B60007CC
:1004100005820320000A12010002000000086B722E
:10042000737901000102000105010902A1018502A1
:100430000901A100050919012908150025019508E0
:10044000750181020501093009311581257F950269
:100450007508810609381581257F95017508810683
:10046000050C0A38021581257F950175088106C0A3
:10047000C005010980A101850319012AB7001501F2
:1004800026B700950175108100C0050C0901A10176
:10049000850419012AA002150126A00295017510F4
:1004A0008100C005010906A1018506050719E0299B
:1004B000E715002501950875018102050719002936
:1004C000EF1500250195F075018102050819012934
:1004D00005950575019102950175039101C005010E
:1004E0000906A101050719E029E71500250195086E
:1004F000750181029501750881010507190029FF21
:10050000150026FF009506750881000508190129C8
:1005100005950575019102950175039101C011249E
:100520001FBECFEFDAE0DEBFCDBF04B603FE27C0AB
:100530008091E8029091E902A091EA02B091EB0269
:100540008730904BA740B04BD1F41092E802109244
:10055000E9021092EA021092EB0214BE84B7877F80
:1005600084BF0FB6F894A89580916000886180934D
:100570006000109260000FBEE0E0F8E3099511E022
:10058000A0E0B1E0ECEFF3E502C005900D92A23CD3
:10059000B107D9F722E0A2ECB1E001C01D92A83E5C
:1005A000B207E1F70E9413140C94FC290C9400008C
:1005B00081E0089581E008950C94DA0208950C9486
:1005C000DE021F93CF93DF9300D000D01F92CDB7F0
:1005D000DEB749835A836B833091C40189819A8144
:1005E000311114C0662359F0222349F00E949F095B
:1005F000182F682F89819A810E94480903C00E94A0
:100600007309182F69817A81812F04C00E949F0984
:1006100069817A810F900F900F900F900F90DF916A
:10062000CF911F910C945710FC01262F40815181CE
:100630006281738184810C94E10281E00895CF93FB
:10064000DF93EC0160E00E941403BE01DF91CF91C3
:100650000C94DF020E9487120E94AF030C94C41214
:100660000C94C01280E00C94B00308950C943503F0
:100670000E94E9070E9436032FEF84E39CE021509B
:1006800080409040E1F700C000000C940D220F93D1
:100690001F93CF93DF938C0161E00E941403EC0160
:1006A000B8010E94DC02882309F444C0B801CE01DD
:1006B0000E94B21F8823F1F1B801CE010E94DC1D17
:1006C0008823C1F1B801CE010E940E1F882391F149
:1006D000B801CE010E94E51C882361F1F8018281F6
:1006E000882309F1CB358DE5D807C1F050F4C11549
:1006F000FCE5DF0781F0CF3DDC45A9F40E94530FF4
:1007000019C0CC35EDE5DE0761F0CD35DD4559F496
:100710000E94960E08C00E9438030CC00E949F0ED3
:1007200002C00E94A20EC801DF91CF911F910F91CC
:100730000C94D80280E0DF91CF911F910F91089522
:100740000C9435030E940E200E94B0030C94A00369
:1007500008950C94A80381E008950C94AB030895C8
:10076000CF93C82F0E94A9038C2F0E94AD03CF9175
:100770000895CF93DF93CDB7DEB72B970FB6F894DC
:10078000DEBF0FBECDBF4F83588769877A878B87BF
:1007900061110E94E20D9E012F5F3F4F86E0F9013B
:1007A00011928A95E9F785E0FE013796D90101900B
:1007B0000D928A95E1F789819A814C815D81452B63
:1007C00031F09F3F31F491E08F3F19F403C091E085
:1007D00001C090E090FF09C049815A816B817C8102
:1007E0008D819E810E94030D05C0C9010E941D03D9
:1007F0008111F2CF2B960FB6F894DEBF0FBECDBF9E
:10080000DF91CF910895FC01808191810E94E109DF
:100810000895CF93882309F4A4C0C82F8238C1F467
:100820000E940E2081FD9DC069E38091020190919C
:1008300003010E9404210E94140E2FEF81EE94E028
:10084000215080409040E1F700C0000069E319C0EA
:10085000833801F50E940E2080FD83C063E58091FE
:100860000201909103010E9404210E94140E2FEFB7
:1008700081EE94E0215080409040E1F700C00000FC
:1008800063E580910201909103010E940F21CF91B5
:100890000C94140E8438C1F40E940E2082FD61C0B5
:1008A00067E480910201909103010E9404210E945B
:1008B000140E2FEF81EE94E0215080409040E1F73C
:1008C00000C0000067E4DDCF8CEF8C0F813AD0F4DC
:1008D0006C2F80910201909103010E948420882353
:1008E00049F06C2F80910201909103010E940F2129
:1008F0000E94140E6C2F80910201909103010E94BE
:100900000421C5CF80E28C0F883048F4C77081E0A5
:1009100001C0880FCA95EAF70E94C50DB8CFEBE574
:10092000EC0FE33040F4F0E0E65AFE4F808190E0B7
:10093000CF910C944220E8E5EC0FE73150F4F0E061
:10094000EE0FFF1FE45DFE4F80819181CF910C94EB
:100950005820CD3E30F08C2F0E94A214CF910C94E1
:100960007415CF910895882309F464C0823879F40E
:100970000E940E2081FF5EC069E380910201909188
:1009800003010E9404210E94140E69E310C0833801
:10099000B1F40E940E2080FF4DC063E580910201FA
:1009A000909103010E9404210E94140E63E580913E
:1009B0000201909103010E940F210C94140E8438BF
:1009C00079F40E940E2082FF35C067E48091020115
:1009D000909103010E9404210E94140E67E4E7CF66
:1009E0009CEF980F913A10F4682FE1CF90E2980FA6
:1009F000983050F4877091E001C0990F8A95EAF71A
:100A0000892F0E94CB0DD9CF9BE5980F933020F40E
:100A100080E090E00C94422098E5980F973120F404
:100A200080E090E00C9458208D3E20F00E94FD1450
:100A30000C94741508951F93CF93DF93182FEB0137
:100A40000E940904209741F08FE99FE00197F1F798
:100A500000C000002197F6CF812FDF91CF911F9129
:100A60000C94B304893319F060E070E002C060E5D3
:100A700070E00C941B05882321F00E94C50D0C9496
:100A8000140E0895882321F00E94CB0D0C94140EAF
:100A90000895CF92DF92EF92FF920F931F93CF931F
:100AA000DF937C01162FC72FFC01D28105810295AF
:100AB0000F700E94BB0D8823B9F0DD23A9F08C2FA5
:100AC000807F803421F080E2810F883068F080914F
:100AD000A30282FD09C082E00E94640E0E94BB0D49
:100AE00091E0D82ED92601C0D12CCC2EC2948FE013
:100AF000C8228C2D90E0FC01EA5AFF4F0C94572934
:100B00008C2F807FCF70882311F0C295C07FDD23AA
:100B100099F0CC2309F4A6C180E2810F883010F04F
:100B2000111104C08C2F0E94C50D03C08C2F0E9490
:100B3000D50D0E94140E96C1812F0E94B304CC23C0
:100B400009F4B5C180E2810F883038F1112329F111
:100B50008C2F0E94DB0D24C08C2F807FCF708032C1
:100B600011F0C295C07F112319F01130A1F13DC0E1
:100B70008091A30282FF17C0DD2349F0CC2329F026
:100B80008C2F0E94C50D0E94140E80E06CC180E085
:100B90000E94B304CC2309F48AC18C2F0E94CB0D90
:100BA0000E94140E84C1DD2371F0002341F0013056
:100BB00031F40E94F50D8C2B0E94FD0D78C10E942E
:100BC000F50D8C2B1DC0002319F0013009F46FC105
:100BD0000E940A0E25C0DD2321F0063008F067C10F
:100BE0000EC0053008F063C11BC0DD2361F0002397
:100BF00031F0F701858180FF35C18F7085838C2F9F
:100C00000E943B0554C1002359F0193309F03BC140
:100C1000FFEF27EE83E0F15020408040E1F731C143
:100C20008C2F0E94420543C18C2F86958695837038
:100C300019F0813061F03BC1DD2321F0812F9C2F21
:100C4000937002C080E090E00E94422038C1DD2312
:100C500021F0812F9C2F937002C080E090E00E94D1
:100C600058202DC1812FDD2319F00E94A21402C04B
:100C70000E94FD140E94741522C18C2F837009F00C
:100C800045C0D11118C1412F429546954770440F78
:100C9000440F612F6F70862F90E0A0E0B0E0042E2B
:100CA00004C0880F991FAA1FBB1F0A94D2F714FF14
:100CB00010C00FE010E020E030E004C0000F111F72
:100CC000221F331F4A95D2F7009510952095309535
:100CD00003C000E010E09801C695C695C370BC0142
:100CE000CD01602B712B822B932BC23049F058F42D
:100CF000C13019F00E945E08DEC00E944C08DBC0C3
:100D00000E947008D8C00E944A08D5C0DD2319F09F
:100D10008C2F817001C08695882309F4CCC0412FA7
:100D2000429546954770440F440F612F6F70862F90
:100D300090E0A0E0B0E0042E04C0880F991FAA1F25
:100D4000BB1F0A94D2F714FF10C00FE010E020E0A0
:100D500030E004C0000F111F221F331F4A95D2F745
:100D6000009510952095309503C000E010E09801A3
:100D7000C695C695C370BC01CD01602B712B822B2B
:100D8000932BC23049F058F4C13019F00E94230966
:100D900092C00E9411098FC00E9435098CC00E9428
:100DA000840889C0CF70DD2339F08C2F0E94AA08F7
:100DB000812F0E943B057FC0812F0E9442058C2F0E
:100DC0000E94CB0878C0123F21F128F4103F41F077
:100DD000113FC1F043C0133F19F1143F79F03EC0F9
:100DE000DD2341F0053008F062C08C2F8F710E9426
:100DF000F0085DC0063008F05AC0F7CF8091A3021A
:100E000082FF18C0DD2339F08C2F8F710E94AA0851
:100E10004EC0DD23C9F38C2F8F710E94CB0847C0D1
:100E2000DD2329F08C2F8F710E94950840C00E940D
:100E300090083DC0DD2349F0CF718C2F0E94AA0895
:100E400063E08C2F0E94490E32C081E00E94640E44
:100E5000023068F182E00E94640E29C0DD2331F087
:100E6000002391F2812F0E94090421C0002399F2EE
:100E7000193349F49FEFE7EEF3E09150E040F04082
:100E8000E1F700C00000812F0E94B30410C04C2F76
:100E90004F70612FC7010E9453100E940F0A0FC0AC
:100EA0004C2F4F70612FC7010E94561008C088EF69
:100EB0008C0D843020F40E940E200E94B003DD20AF
:100EC000C9F00E94B70D80FD15C0F70112820E9483
:100ED000B10D0E94AA08C7010E949B070E94B10D94
:100EE000DF91CF911F910F91FF90EF90DF90CF9006
:100EF0000C94CB08DF91CF911F910F91FF90EF9051
:100F0000DF90CF9008950F931F93CF93DF93EC0161
:100F1000688179818A810E94EC098C010E944709CD
:100F20000E943808B801CE010E944905DF91CF9197
:100F30001F910F910895CF93DF93EC0198818981E0
:100F40002B813C81232B31F08F3F31F481E09F3F97
:100F500019F403C081E001C080E080FD1DC0CE0116
:100F60000E944703811110C00E94BB0D8823A1F08D
:100F70008A81882389F08091A30282FD0DC082E0DE
:100F8000DF91CF910C94640ECE010E948307CE01B5
:100F9000DF91CF910C941F03DF91CF91089580E0F2
:100FA00090E00E94422080E090E00E9458200E9441
:100FB000E20D0E94F20D0E94140E0E94A5160C94E0
:100FC000741580910201909103010E941A210C94E2
:100FD000CF070E94D20D0C94E107E92FE295EF7044
:100FE0004E2F50E0FA013297EE30F105B0F4EA5995
:100FF000FF4F0C945729803F91F018F4883E68F415
:101000000EC0843F51F40BC0883E48F0813F29F464
:1010100006C093FB882780F9089580E0089581E059
:101020000895FC01808191810E94E1090E94ED07F1
:101030000895CF93DF9300D000D01F92CDB7DEB7D5
:101040000F900F900F900F900F90DF91CF91089518
:10105000CF93DF9300D000D000D0CDB7DEB7269677
:101060000FB6F894DEBF0FBECDBFDF91CF910895CC
:10107000089508950C9439080C943A080E943C088D
:101080006093E2017093E3018093E4019093E501A2
:101090000C94CF070C943E080F931F930091E2012C
:1010A0001091E3012091E4013091E501602B712B57
:1010B000822B932B1F910F910C943E080F931F933B
:1010C0000091E2011091E3012091E4013091E501EA
:1010D00060237123822393231F910F910C943E0868
:1010E0000F931F930091E2011091E3012091E4011D
:1010F0003091E50160277127822793271F910F9177
:101100000C943E080C9439080E9482086093DE011A
:101110007093DF018093E0019093E1010C94CF077D
:1011200060E070E0CB010C9484080F931F9341E0C2
:1011300050E060E070E08A019B0104C0000F111FC5
:10114000221F331F8A95D2F7C901B8011F910F9151
:101150000C9484080F931F9341E050E060E070E02E
:1011600004C0440F551F661F771F8A95D2F78091E0
:10117000DE019091DF01A091E001B091E1018A01CF
:101180009B01082B192B2A2B3B2BC901B8011F915E
:101190000F910C9484080F931F9341E050E060E09E
:1011A00070E004C0440F551F661F771F8A95D2F761
:1011B00040955095609570958091DE019091DF018A
:1011C000A091E001B091E1018A019B01082319235C
:1011D0002A233B23C901B8011F910F910C94840865
:1011E0000F931F9341E050E060E070E004C0440FB3
:1011F000551F661F771F8A95D2F78091DE01909167
:10120000DF01A091E001B091E1018A019B01082773
:1012100019272A273B27C901B8011F910F910C9468
:1012200084080F931F930091DE011091DF0120913C
:10123000E0013091E101602B712B822B932B1F91E8
:101240000F910C9484080F931F930091DE0110916D
:10125000DF012091E0013091E101602371238223BD
:1012600093231F910F910C9484080F931F93009167
:10127000DE011091DF012091E0013091E101602752
:101280007127822793271F910F910C94840808954A
:101290002AE0929F800D1124E82FE695E695E695C9
:1012A000877051E001C0550F8A95EAF785E0E89F05
:1012B000F0011124EB53FE4F20E030E070E040815C
:1012C000CB01022E02C0969587950A94E2F78170B1
:1012D000819584278523842781932F5F3F4F253075
:1012E000310569F708952AE0929F800D1124682F37
:1012F000669566956695982F977085E0689FB00112
:10130000112440E050E080E0FB01E40FF51FEB53B7
:10131000FE4F208130E0092E02C0369527950A94B1
:10132000E2F721703327042E01C0220F0A94EAF756
:10133000822B4F5F5F4F4530510531F70895BF92C3
:10134000CF92DF92EF92FF920F931F93CF93DF9391
:101350008C01C090DE01D090DF01E090E001F090C0
:10136000E1018091E2019091E301A091E401B0914B
:10137000E501C82AD92AEA2AFB2ACFE1D0E0D70121
:10138000C6010C2E04C0B695A795979587950A942B
:10139000D2F780FD04C0219790F7B12C07C0BC2E76
:1013A000B8018C2F0E948E110197A9F38B2DDF912C
:1013B000CF911F910F91FF90EF90DF90CF90BF9052
:1013C0000895CF93DF93EC010E949F09BE010E9414
:1013D0008E11DF91CF9108951F93CF93DF93EB018F
:1013E0009091C401992321F0CB010E94E10913C01F
:1013F000882349F0CB010E949F09182F682FCE0146
:101400000E94480904C0CB010E947309182FBE0135
:10141000812F0E948E11DF91CF911F910895EF923D
:10142000FF920F931F93CF93DF938C01892B09F4C5
:101430006CC0F12CEE24E394E8012196F80184912C
:10144000843740F4843008F051C0813081F082301C
:1014500019F15BC0853709F444C0A8F19CE7980FE7
:10146000903708F052C08F770E94B30441C00E5FDE
:101470001F4FFE01849190E2980F983050F48770CE
:10148000FE2D01C0FF0F8A95EAF78F2F0E94E50D10
:1014900014C00E9409042DC00E5F1F4FFE018491ED
:1014A00090E2980F983060F48770FE2D01C0FF0F16
:1014B0008A95EAF78F2F0E94EB0D0E94140E19C037
:1014C0000E94B30416C00E5F1F4FFE01C491CC23CF
:1014D00081F08FE99FE00197F1F700C00000C15053
:1014E000F6CF0E5F1F4FFE01F49003C00E94090467
:1014F0008E018F2D882309F49FCFEFE9FFE031970C
:10150000F1F700C000008150F5CFDF91CF911F911E
:101510000F91FF90EF9008951F93CF93DF93C091A9
:10152000E60116E08091E701C81799F0D0E01C9F12
:10153000F0011D9FF00D1124E851FE4F40815181B3
:1015400062817381848195810E9428082196C770E9
:10155000E9CFDF91CF911F910895409118025091EA
:10156000190260911A0270911B0280911C029091E5
:101570001D020C942808EF92FF920F931F93CF93B4
:10158000DF9380911D0282958F7009F065C0809174
:101590001A02882309F460C08091E601F090E70107
:1015A000109118020091190260911B0270911C02A7
:1015B00091E01F3F09F090E0C0910001D09101013E
:1015C000292F96E0E92E8F1509F446C061157105A3
:1015D00021F00F3F21F030E003C031E001C0322F95
:1015E00090E030FD36C0E89EF001E99EF00D112438
:1015F000DF01A851BE4F11963C911197301329C0BD
:101600003C91311326C012963C911297311121C0A2
:1016100013964D915C911497461B570B4C175D0721
:10162000C0F480911D028F70806180931D02E35190
:10163000FE4F80818F708061808388E192E00E94FC
:101640009B07DF91CF911F910F91FF90EF900C942A
:101650008C0A01968770B7CFDF91CF911F910F91C0
:10166000FF90EF9008959F92AF92BF92CF92DF923A
:10167000EF92FF920F931F93CF93DF93CDB7DEB717
:1016800061970FB6F894DEBF0FBECDBF8C0185E029
:10169000F801DE011D9601900D928A95E1F7D801BF
:1016A0001296EC9090911802E091190220911B0281
:1016B00030911C022115310531F0EF3F31F481E00A
:1016C0009F3F19F403C081E001C080E0B82FB170E2
:1016D0009B2E80FD47C1D8014C9111965C911197CA
:1016E0001396AD90BC90149788E1C82E82E0D82E56
:1016F000F0901A02B501621B730B2091000130912A
:101700000101FF2009F4D9C080911D0262177307FF
:1017100008F095C0282F207F09F052C05E1313C037
:10172000491311C0FE2CE1100EC08F7080618093B0
:101730001D020E94AD0AC6010E949B0780911D02F6
:10174000F80185834DC1AB2831F05F3F31F481E072
:101750004F3F19F403C081E001C080E080FD03C069
:1017600081E08E2502C080E090E0F82FF170FF2E1E
:1017700080FF1CC08091E6012091E70136E08217CE
:1017800009F40BC190E0389FF001399FF00D11244E
:10179000E851FE4F6181561306C06081461303C0B5
:1017A0006281E61203C001968770E9CFFE2CEE201D
:1017B00009F416C180911D02816080931D0254C0FE
:1017C0005E1306C0491304C0E11002C0F80199C0BD
:1017D000C8010E941108882361F1EE2051F1209187
:1017E0001D02822F82958F7090E0029774F0809195
:1017F00018029091190298878F831986BB86AA8652
:101800002C87CE0107960E949B0786E0F801A8E18D
:10181000B2E001900D928A95E1F70E94BB0A0E9406
:10182000AD0A0AC05E1711F1C8010E9411088111AA
:101830002CC0C8010E949B07FF24F394D1C0282F1D
:10184000207F81F77A2DB98AA88A6E2D89890E9416
:10185000190888E192E00E949B0786E0D6011D925C
:101860008A95E9F70E94AD0AF12CBAC04913DCCF82
:10187000E110DACFF8018583C8010E949B0786E05A
:10188000D6011D928A95E9F7ABC0EE2091F2209126
:101890001D02822F82958F7090E002970CF4B5CFD5
:1018A00080911802909119029A8389831B82BD82CC
:1018B000AC822E83CE010196A6CF6217730708F083
:1018C00044C0FE2CEE2009F4B4CF5E1330C049139F
:1018D0002EC020911D0220FD21C0822F82958F7085
:1018E000482F50E041155105C9F0F80125834F30CC
:1018F000510541F08F5F982F9295907F822F8F70C6
:10190000892B8583C8010E949B0786E0F801A8E126
:10191000B2E001900D928A95E1F73CC086E0F801B3
:10192000A8E1B2E001900D928A95E1F759C0C80193
:101930000E941108811169CF80911D0281608093FE
:101940001D02C8010E949B074BC07A2DB98AA88A44
:101950006E2D89890E94190886E0D6011D928A950C
:10196000E9F718C0EE2009F464CFC8010E941108FD
:10197000F82E882309F45DCF86E0F801A8E1B2E0F3
:1019800001900D928A95E1F788E192E00E940304AC
:101990000E94BB0A0E94AD0A23C04D875E878D85D9
:1019A0009E850E94E109292F22952F70223028F46C
:1019B0009F7039F0811105C00BC0243028F49F704E
:1019C00049F4805E883020F0C8010E949B079F2C5C
:1019D000F92C06C0D80115969C91907F91F7F8CF0D
:1019E0008F2D61960FB6F894DEBF0FBECDBFDF918D
:1019F000CF911F910F91FF90EF90DF90CF90BF900C
:101A0000AF909F9008951F93CF93DF93CDB7DEB72C
:101A10002C970FB6F894DEBF0FBECDBF4F8358870B
:101A200069877A878B879C87CE0107960E94330B44
:101A30008823D1F09F8188852A853B85232B31F02F
:101A40008F3F31F481E09F3F19F403C081E001C072
:101A500080E080FD47C04F81588569857A858B85F8
:101A60009C850E9428083EC086E0FE013796DE0174
:101A7000119601900D928A95E1F7FF81E8856A85BC
:101A80007B856115710531F0EF3F31F481E0FF3F57
:101A900019F403C081E001C080E080FD23C02091E3
:101AA000E70130E0C9010196877099274091E6016E
:101AB00050E084179507F1F1F983EA837D836C8305
:101AC00096E0929FD001939FB00D1124A851BE4F74
:101AD000FE01319601900D929A95E1F78093E7010E
:101AE0000E948C0A16E08091E6019091E701891727
:101AF00071F1189FC001112488519E4F0E94330B31
:101B0000882329F1E091E6011E9FF0011124E8519C
:101B1000FE4F4081518162817381848195810E9451
:101B200028088091E60190E00196877099278093BC
:101B3000E601D9CF0E94E9071092E7011092E60171
:101B4000E8E1F2E086E0DF011D928A95E9F72C9644
:101B50000FB6F894DEBF0FBECDBFDF91CF911F91BE
:101B6000089580911E0285958595859508958091AB
:101B70001E028770089590911E02977081E009F40B
:101B800080E0089580914202089590914202892B4D
:101B90008093420208958095909142028923809318
:101BA0004202089510924202089590914102892BB9
:101BB00080934102089580959091410289238093FA
:101BC0004102089510924102089590914002892B9C
:101BD00080934002089580959091400289238093DC
:101BE0004002089510924002089580911F020895C6
:101BF00008950C94F80D0C94F90D9091A30292FDA8
:101C000008C090911F02981721F080931F020C9436
:101C1000FB0D089580911F02882329F010921F0266
:101C200080E00C94FB0D0895E0910201F091030116
:101C3000809142028083E0910201F0910301908142
:101C400080914102892B8083E0910201F091030190
:101C5000908180914002892B808380911F0288238C
:101C600081F0E0910201F09103019081892B808342
:101C700080910201909103010E946E2081110E94C7
:101C80000A0E80910201909103010C941A200C9489
:101C9000F80D9091A30292FD10C098E0899F9001E9
:101CA0001124262B20931E020E94AA0880911E0256
:101CB0008595859585950C94470E0C94AA081092ED
:101CC0001E0280E00C94470E20911E028095822314
:101CD00080931E02982F977099F430E0482F082EB9
:101CE000000C550B2417350759F09091A30292FD73
:101CF00007C08595859585950E94CB080C945F0E4D
:101D000008959091A30292FB222720F9281769F0E9
:101D100080FB92F99093A3028091A2029091A3027A
:101D20000E94CF0E82E00C94640E08958091A3026D
:101D300082FB882780F991E089270C94810E81E04D
:101D40000C94810E80E00C94810E6FEF7FEF80E0A9
:101D500090E00C94E62980E090E00E94C22921E006
:101D6000893E9E4F09F020E0822F089582E090E0A6
:101D70000C94B42983E090E00C94B429CF9384E0D0
:101D800090E00E94B429C82F82E290E00E94B4291A
:101D90002C2F30E0A901582BCA01CF910895CF9381
:101DA000C92F682F84E090E00E94C8296C2F82E23E
:101DB00090E0CF910C94C829AB01BC018FE090E07A
:101DC0000C94DA29AB01BC0183E190E00C94DA2990
:101DD00060E070E0CB010C94E20E60E070E0CB01BB
:101DE0000E94DC0E0C94E80E69EE7EEF80E090E03D
:101DF0000E94E62960E082E090E00E94C82960E04D
:101E000083E090E00E94C8291092E2011092E30161
:101E10001092E4011092E50160E084E090E00E94FD
:101E2000C82960E082E290E00E94C82960E085E075
:101E300090E00E94C82960E086E090E00E94C829F6
:101E40006FEF87E090E00E94C82940E050E0BA01BF
:101E500088E090E00E94DA2960E08DE090E00E9446
:101E6000C82940E050E0BA0188E190E00E94DA29F8
:101E700060E087E190E00E94C82940E050E0BA01AC
:101E80008CE190E00E94DA2960E070E080E290E06E
:101E90000E94E62940E050E0BA0188E190E00E940B
:101EA000DA290C94ED0E0C94F40E682F8EE090E07D
:101EB0000C94C8290E94CC21609350027093510267
:101EC000809352029093530260934C0270934D02A0
:101ED00080934E0290934F02089585B7806885BF26
:101EE00085B7806885BF089581E008950C94740FCC
:101EF00008950C94780F0C94780F0C947B0F0C942D
:101F0000780F0C947F0F0C94780F0E946D0F8AE667
:101F100092E10E9404200E94830F0C94810F0E9482
:101F2000790F0C94780F0E94B7210E946C130E94C5
:101F3000041C0C947D0F6F927F928F929F92AF92B0
:101F4000BF92CF92DF92EF92FF920F931F93CF93A6
:101F5000DF93CDB7DEB72A970FB6F894DEBF0FBE7A
:101F6000CDBF0E94811381110E945A0F34E4832E49
:101F700032E0932E00E010E0C02E802F0E94AB12C2
:101F80005C01F401619071904F016826792661141B
:101F90007104B1F40F5F1F4F0430110569F78FEF23
:101FA00089838A831B820E94C0218160782F9D8350
:101FB0008C8349815A816B818D810E94B9033AC01B
:101FC0008091540281FD0E94B412D12CEE24E3943E
:101FD000F12CC3018E219F21892B29F10E94760FBC
:101FE0008823A9F0DE82CF82AE20BF2081E0AB281B
:101FF00009F480E088870E94C0218160782F9A8749
:1020000089874E815F8168858A850E94B903000FA8
:10201000111FF801EC5BFD4F80819181E826F926C4
:10202000F182E08207C0D394EE0CFF1CFAE0DF12CD
:10203000D0CFB0CF0E94371C0E9492150E940E2074
:10204000909143028917D1F00E940E2080934302A1
:102050002A960FB6F894DEBF0FBECDBFDF91CF91A9
:102060001F910F91FF90EF90DF90CF90BF90AF90B6
:102070009F908F907F906F900C94B0032A960FB62C
:10208000F894DEBF0FBECDBFDF91CF911F910F91AE
:10209000FF90EF90DF90CF90BF90AF909F908F9088
:1020A0007F906F90089580E090E00895089528E271
:1020B000829FC0011124FC012AE0729FE00DF11DF6
:1020C0001124E60FF11DEE0FFF1FE450FF4F859125
:1020D00094910895880F991FFC01E456FE4F859155
:1020E00094910895CF93DF930E949311EC01811591
:1020F00020E5920708F03FC0811540E4940708F0FE
:10210000D2C0883E910500F5803E910508F002C1DD
:10211000883A910570F4853A910508F0A6C081309F
:10212000910509F49FC008F4F2C0049708F0F2C0CA
:10213000EEC08F3B910508F4A1C0803C910508F4E6
:10214000E6C0805C9109A5C0811550E2950760F456
:10215000C11581E0D80708F0DDC0CD3ED10508F4F7
:10216000D6C0CE019065D7C0811520E3920708F054
:1021700093C09F708EC0811545E5940708F046C056
:10218000811554E5950708F0A6C0C11582E5D8076A
:1021900018F5C11521E5D20708F088C0CE01F4E09A
:1021A00096958795FA95E1F7282F23703C2F337089
:1021B00081E090E002C0880F991F3A95E2F79C6891
:1021C000922B2C2F2F702695269540E2249F90016C
:1021D0001124822B932B9FC09E01237033279C2FA9
:1021E00096959695C115D34508F065C041E050E03D
:1021F00002C0440F551F2A95E2F780E2989F900194
:102200001124CA01822B932B9C6885C0811559E546
:10221000950798F4C11588E5D80708F061C0C11585
:1022200026E5D20708F073C08C2F0E9427128F7109
:1022300090E0982F882790626EC081154AE5940738
:1022400008F453C090568115904208F060C08D2F5D
:102250008F710E9427129E01332730628F71A9016E
:10226000582B53C081E090E056C0855AC82FD0E06B
:10227000C557DE4F888190E090644DC0885AC82FC2
:10228000D0E0CC0FDD1FC35ADE4F88819981946462
:1022900042C00E946A103FC09927D3FF02C0986CC9
:1022A0003AC0906C38C09F70906A35C09C2F8827C8
:1022B000816F906A30C041E050E002C0440F551F6A
:1022C0002A95E2F780E2989F90011124CA01822B9F
:1022D000932B9A6820C0982F8827846F906A1BC020
:1022E0009C2F8827806F906A16C08F700E942712DB
:1022F0009E0194E0369527959A95E1F72F7030E08E
:10230000322F22273069A901482BCA0104C080E07E
:1023100090E001C0CE01DF91CF9108950E94571047
:102320000E94721008958238910569F1B0F48133EA
:10233000910509F46DC048F48932910509F463C030
:102340008A32910509F469C008958533910509F42D
:1023500055C089339105B9F00895833E910569F11F
:1023600038F4803E9105B1F0823E910509F108955F
:10237000863E9105A9F1873E9105B9F1843E91050C
:1023800009F064C023C02091A20220FD4FC021FDAE
:102390004DC008958091A20280FD44C08091A302A7
:1023A00080FF44C08091A20284FD42C083EE4DC0F4
:1023B0008091A20282FF38C0F5CF8091A20282FDF7
:1023C00033C08091A30280FD31C0ECCF8091A30285
:1023D00081FF32C08091A20284FD2AC087EE35C001
:1023E0008091A20283FF26C0F5CF8091A20283FDD7
:1023F00021C08091A30281FD1FC0ECCF8091A20279
:1024000085FD1CC01DC08091A20285FD19C016C0AB
:102410008091A20286FD16C017C08091A20286FD9F
:1024200013C010C089E311C082EE0FC080EE0DC052
:1024300080E00BC086EE09C084EE07C089E205C0CB
:1024400085E303C08AE201C081E390E008959091A2
:10245000A20292FF0DC0282F2871283019F4877F1F
:10246000846006C0282F2471243011F48B7F88608B
:1024700093FF0DC0282F2871283119F4877E8461BD
:1024800006C0282F2471243111F48B7E886120919D
:10249000A30220FF0DC0382F3871383019F4877F20
:1024A000816006C0382F3171313011F48E7F886021
:1024B00021FF0DC0282F2871283119F4877E8161F2
:1024C00006C0282F2171213111F48E7E886194FD80
:1024D000877E089580E008950C94A50E0E948113D4
:1024E0002FEF86E791E0215080409040E1F700C057
:1024F00000000E94811380E00E94AB1280FF04C0A4
:102500000E946C120C940D2208950C946E120E947D
:10251000AB0E811102C00E94530F0E94B60E809331
:1025200054020E94BE0E9093A3028093A2020E94C6
:1025300085120E94BA0E682F70E080E090E00E9441
:102540004A086091DE017091DF018091E001909175
:10255000E1010C948208E82FF0E0EE0FFF1FE45534
:10256000FD4F808191810895089580EA8A95F1F761
:10257000089500C008950C94B51208950C94BD12EE
:102580000C94BE120C94BD120C94C212F894E82F55
:10259000E295EF70F0E031A1282F2F7081E090E0FC
:1025A00001C0880F2A95EAF7982F9095932391A35D
:1025B00092A1892B82A3789408950F931F93CF93B0
:1025C000DF93C8E9D1E089918F3F11F00E94C612D4
:1025D00081E0CC39D807B9F7CEE8D1E008E911E0BD
:1025E00089918F3F11F00E94C6120C171D07C1F789
:1025F000DF91CF911F910F910895BF92CF92DF92FB
:10260000EF92FF920F931F93CF93DF938C01C62F0E
:10261000D0E0CE0188569E4F6C01FC0190819F3F17
:1026200009F450C0B62EF894E92FE295EF70F0E06F
:1026300081A19F7021E030E001C0220F9A95EAF756
:10264000822B81A382A12095282322A378940E9423
:10265000B912EEE8F1E048E951E021E030E0E12C88
:10266000F12C61916F3F89F0A62FA295AF70B0E079
:1026700090968C9190E06F7002C0959587956A95C1
:10268000E2F780FD02C0C90102C080E090E0E82AC4
:10269000F92A220F331F4E175F0719F7F6018081C1
:1026A0008F3F11F00E94C61261E0E114F10409F4B9
:1026B00060E08B2D0E94BB12CC0FDD1FC00FD11F1D
:1026C000F982E882DF91CF911F910F91FF90EF90F7
:1026D000DF90CF90BF9008950E94DD1288E0ECEA71
:1026E000F2E0DF01982F1D929A95E9F7E4EAF2E013
:1026F000DF011D928A95E9F784E00E94CC130C94C7
:102700002A03FF920F931F93CF93DF93CDB7DEB7CA
:1027100028970FB6F894DEBF0FBECDBF8E010F5FB6
:102720001F4F88E0F80111928A95E9F7F12C6F2D7F
:10273000C8010E94FD12F394F4E0FF12F8CF48E0C4
:1027400050E0B80184EA92E00E94A729FF24F394A4
:10275000009709F4F12C892B41F088E0F801A4EAF4
:10276000B2E001900D928A95E1F72F2D44E06CEADA
:1027700072E084EA92E00E94CD130E9430038F2D14
:1027800028960FB6F894DEBF0FBECDBFDF91CF9174
:102790001F910F91FF9008950895FF920F931F933B
:1027A000CF93DF93F82E092F162FD72FC42F222374
:1027B00049F081E0809357020E94C0219093560215
:1027C00080935502809157028823D9F08091550259
:1027D000909156020E94D821059798F0EF2DF02F86
:1027E000A12FBD2F80E090E04C2F50E0841795077B
:1027F00034F4219131912D933D930196F7CF1092AE
:102800005702DF91CF911F910F91FF9008950E9481
:10281000C5230E94930F0C94D1230E94D5230E94BC
:102820009B0F0C94EF230E9446210E94AC230E9430
:10283000850F0E9407140E940D140E948F0FFBCF7A
:1028400080915E0280FF0BC06091090185E0689F66
:10285000B001112475956795759567952BC081FF1B
:1028600009C06091090185E0689FB0011124759548
:10287000679520C082FF07C06091090185E0689FCD
:10288000B001112417C090915D029923D1F060919D
:102890000801961788F72091090185E0289F90018B
:1028A0001124929FA001939F500D112470E0CA0142
:1028B0000E9421296038710540F46115710519F4F1
:1028C00006C065E070E0862F08958FE7089581E0E7
:1028D000089580915E0280FF08C06091050170E05C
:1028E000759567957595679521C081FF06C06091C4
:1028F000050170E07595679519C082FF04C060916D
:10290000050170E010C090915C02992399F06091EC
:1029100004019617A0F780910501899FC001112439
:1029200070E00E9421296038710540F4611571053D
:1029300019F406C061E070E0862F08958FE70895CE
:1029400081E008958D3E21F40E942014819504C0F9
:102950008E3E29F40E9420148093620208958F3ED7
:1029600021F40E942014819504C0803F29F40E9424
:102970002014809361020895893F19F40E9469141C
:1029800005C08A3F31F40E946914819580936302E7
:1029900008958B3F21F40E946914819504C08C3FF7
:1029A00029F40E9469148093640208959FE0980FAF
:1029B000983078F421E030E0A90102C0440F551F9F
:1029C0009A95E2F7CA0190916002892B8093600288
:1029D00008958D3F21F480915E0281600BC08E3F8F
:1029E00021F480915E02826005C08F3F29F48091BE
:1029F0005E02846080935E0208958D3E39F490916A
:102A0000620297FF35C01092620259C08E3E29F4CF
:102A1000909162021916BCF32BC0909161028F3E17
:102A200029F497FF25C01092610249C0803F19F434
:102A30001916CCF31DC090916302893F29F4191631
:102A4000BCF4109263023BC08A3F19F497FF10C098
:102A5000F8CF8B3F39F49091640297FF09C0109230
:102A600064022DC08C3F21F4909164021916BCF3CE
:102A70009FE0980F983080F421E030E0A90102C077
:102A8000440F551F9A95E2F7CA0180959091600214
:102A900089238093600213C08D3F21F480915E02F0
:102AA0008E7F0BC08E3F21F480915E028D7F05C02A
:102AB0008F3F29F480915E028B7F80935E0280912C
:102AC0006102811106C080916202811102C01092E0
:102AD0005D0280916302811106C0809164028111C0
:102AE00002C010925C0208950E94C02120916102F0
:102AF000211104C020916202222321F090935B02F5
:102B000080935A0220916302211104C02091640233
:102B1000222321F090935902809358028FE592E08E
:102B20000C943420EF92FF920F931F93CF93DF9377
:102B300000D000D000D0CDB7DEB786E0EFE5F2E000
:102B4000DE01119601900D928A95E1F7E090610205
:102B5000F09062020091630210916402109261028F
:102B6000109262021092630210926402E11003C09C
:102B7000FF2009F45DC080915A0290915B020E948F
:102B8000D821AC0190915D02992339F020910A017E
:102B900030E02417350758F04BC020910B018AE034
:102BA000289F900111242417350718F041C09F3F3A
:102BB00019F09F5F90935D02EE2061F00E94201457
:102BC0001E1414F09FEF01C091E0989F902D1124E6
:102BD00090936102FF2061F00E9420141F1414F0F2
:102BE0009FEF01C091E0989F902D11249093620275
:102BF000309161023323E1F0209162022223C1F07F
:102C000045EB3403C0011124992319F0909361021C
:102C100003C081E08093610235EB2303C0011124DE
:102C2000992319F09093620203C081E080936202BD
:102C3000011103C0112309F45DC0809158029091E5
:102C400059020E94D821AC0190915C02992339F07D
:102C50002091060130E02417350758F04BC0209131
:102C600007018AE0289F900111242417350718F0E6
:102C700041C09F3F19F09F5F90935C02002361F079
:102C80000E946914101614F09FEF01C091E0989F04
:102C9000902D112490936302112361F00E94691416
:102CA000111614F09FEF01C091E0989F902D112410
:102CB00090936402309163023323E1F02091640227
:102CC0002223C1F045EB3403C0011124992319F0EC
:102CD0009093630203C081E08093630235EB23038A
:102CE000C0011124992319F09093640203C081E07C
:102CF000809364028091610281110BC08091620215
:102D0000811107C080916302811103C08091640228
:102D100081110E947415EB82FC820D831E8386E074
:102D2000FE013196AFE5B2E001900D928A95E1F790
:102D300026960FB6F894DEBF0FBECDBFDF91CF91C0
:102D40001F910F91FF90EF900895EFE5F2E086E07C
:102D5000DF011D928A95E9F710925D0210925C02E4
:102D600010925E020895EF92FF920F931F93CF93FC
:102D7000DF938B01682F11110AC0442329F0E82F3B
:102D8000F0E0ED54FD4F6491762F862F75C0212F12
:102D900030E0E82FF0E0442321F0ED54FD4FE491C2
:102DA000F0E046E0049FC0011124CFEFD0E0BE0167
:102DB0000E940D294BEA4603C001479F900D112444
:102DC000800F911D800F911D982F990F890FAE01D3
:102DD000421B530B4E9FD0014F9FB00D5E9FB00D15
:102DE00011249B2F189FA0011124452F55278E01D8
:102DF000041B150B0E9FA0010F9F500D1E9F500D21
:102E000011247E01E81AF108E29E8001E39E100D74
:102E1000F29E100D1124212F3327C21BD30BCE9FFE
:102E20009001CF9F300DDE9F300D1124623071056F
:102E3000A9F048F46115710569F061307105C9F4B4
:102E40008B2F752F0DC06430710581F058F06630FE
:102E5000710579F47E2F8B2F932F0DC0832F7B2F3D
:102E60009E2F09C08E2F7B2F952F05C08E2F732F7D
:102E700002C07E2F852F692FDF91CF911F910F9177
:102E8000FF90EF90089541E00E94B31608950895D1
:102E90000E9443170895CF93DF93762FE901682F9F
:102EA000842F0E944817798368838A83DF91CF91AA
:102EB00008958091B402282F269530E02115310520
:102EC00019F48170826005C02532310524F08170CB
:102ED00088648093B402089588E090E00C94BC2943
:102EE000CF92DF92EF92FF926B017C010E94591703
:102EF000B701A60188E090E0FF90EF90DF90CF90BF
:102F00000C94DA29E4EBF2E083E0808311828FEF06
:102F100082838383148260817181828193810C9486
:102F200070178091B40280FF02C08695089580E0FA
:102F300008959091B802933018F49F5F9093B8026F
:102F4000882351F06091B4027091B5028091B6026D
:102F50009091B7020C947017089581E00C94991722
:102F60009091B802992319F091509093B802882358
:102F700051F06091B4027091B5028091B6029091C7
:102F8000B7020C947017089581E00C94B01770E0AC
:102F90000C94B11D609110018091B40280FF0AC0B1
:102FA00080910F0123E0829FC001112487549D4F1F
:102FB0000C94C7178091110190911201891780F725
:102FC000E82FF0E09F01220F331FE20FF31FE754B9
:102FD000FD4F1182108212828F5FF0CF9091B40268
:102FE00090FF16C09091110120911201921770F478
:102FF000E92FF0E0DF01AA0FBB1FEA0FFB1FE75428
:10300000FD4F8183608342839F5FF0CF0C94CA178A
:103010000895CF93DF9300D01F92CDB7DEB7909184
:10302000B40290FF0AC09E012F5F3F4F0E944B17D2
:103030004B8169818A810E94EE170F900F900F904B
:10304000DF91CF910895CF93DF93EC01EC81F0E015
:10305000E255FE4F4491E4EBF2E0628181810E94EF
:1030600009188C818F5F8C83DF91CF910895CF9366
:10307000DF93EC01E4EBF2E0438162818C810E94FA
:1030800009188C818F5F8C83DF91CF9108950F9306
:103090001F93CF93DF9300D01F92CDB7DEB78C0183
:1030A0008091650281110AC09E012F5F3F4F4FEF53
:1030B0006FEF0E944B178A8180936502F80184812B
:1030C000813051F028F0823061F4409165020AC0ED
:1030D0008091650240E007C06091650240E080E0B9
:1030E00003C040E080E060E00E94EE17F8018481B8
:1030F00090E0019663E070E00E94212984830F90A4
:103100000F900F90DF91CF911F910F910895AF9283
:10311000BF92CF92DF92EF92FF920F931F93CF93C4
:10312000DF9300D01F92CDB7DEB7182FF62E042FF5
:10313000E22E9091B40290FF6DC0E92FE695AE2F7C
:10314000B0E0A456BE4F8C9180936F029E7F923068
:1031500061F49E012F5F3F4F812F0E944B174B81DF
:1031600069818A810E94EE1743C0823019F4009170
:10317000B7023EC0863019F41091B50239C08930CB
:10318000D9F38931A9F5E9518E2F8170D82EE695B2
:10319000F0E0E255FD4FA590B490C12CBB246091A6
:1031A0001301C61618F52C2D30E0A29EC001A39E77
:1031B000900DB29E900D112470E00E940D29812F78
:1031C000D11002C0860F01C0861B90911101290FFA
:1031D000311DA901440F551F240F351F27543D4FA2
:1031E000402F6F2D0E944B17C394D9CF0E94CA174E
:1031F0001093B502F092B6020093B702EE2051F0A0
:103200006091B4027091B5028091B6029091B702BC
:103210000E9470170F900F900F90DF91CF911F9128
:103220000F91FF90EF90DF90CF90BF90AF900895F7
:10323000E4EBF2E09181282F4381628188E0890FDD
:103240000C94871881E00C941819E4EBF2E091815A
:10325000282F4381628188EF890F0C94871881E0C1
:103260000C942519E4EBF2E0628128E0620F08F487
:103270006FEF282F438181810C94871881E00C9493
:103280003219E4EBF2E0628128E0621B08F460E0AE
:10329000282F438181810C94871881E00C94411977
:1032A000E4EBF2E0438128E0420F08F44FEF282FCF
:1032B000628181810C94871881E00C945019E4EBB1
:1032C000F2E0438128E0421B08F440E0282F6281AD
:1032D00081810C94871881E00C945F1920E00C9494
:1032E0008718FF920F931F93CF93DF93EC01F12C7C
:1032F0000FEF10E060911301F616F0F480911101C8
:103300002F2D30E0280F311DC901880F991F280F7C
:10331000391F27543D4F70E0C8010E942129962F84
:103320008C814091B7026091B602F99E800D112404
:103330000E944B17F394DECF0E94CA179A818C81AA
:1033400090FF02C08F5F01C081508C83DF91CF91CD
:103350001F910F91FF900895AF92BF92CF92DF928D
:10336000EF92FF920F931F93CF93DF93FC01828123
:1033700080FF02C00FEF01C001E010E04AE0A42E80
:1033800080911301181708F043C080911101C12EDC
:10339000D12CE601C80FD11DCE01880F991FC80F8F
:1033A000D91FC754DD4F198218821A8234E0E32EE8
:1033B000F12CB12C809167028B0D8B302CF06A2D93
:1033C0000E94FF28892F05C087FF03C09091130139
:1033D000890F082E000C990BC816D90691F480911C
:1033E000B7028E9DA0018F9D500D112455954795D4
:1033F000559547959E016091B6028091B5020E9455
:103400004B17B00EF1E0EF1AF108A1F61F5FB8CF2D
:103410000E94CA1780916702013031F4811102C005
:1034200080911301815007C090E0019660911301D3
:1034300070E00E94212980936702DF91CF911F9154
:103440000F91FF90EF90DF90CF90BF90AF900895D5
:10345000CF938091110190911201891770F4E82F98
:10346000F0E09F01220F331FE20FF31FE754FD4FDF
:103470001182108212828F5FF0CFC0E06091130141
:10348000C617C0F5EC2FF0E070E0CF010E942129B3
:1034900020911101820F20916602022E000C330B45
:1034A00090E0E217F307CCF020910E01022E000C01
:1034B000330B2E173F078CF09C01220F331F820F16
:1034C000931F9C0127543D4F4091B7026091B60273
:1034D0008091B5020E944B170BC0FC01EE0FFF1F3D
:1034E0008E0F9F1FFC01E754FD4F11821082128244
:1034F000CF5FC4CF0E94CA1720910D018091660250
:10350000820F8093660290910E01920F90930E01AC
:1035100019165CF4082E000C990B4091130150E031
:1035200041505109841795071CF0219520930D01F6
:10353000CF9108958F929F92AF92BF92CF92DF92D8
:10354000EF92FF920F931F93CF93DF938C01FC01B7
:103550004481C42FD0E09E01DE010E9465299B01B9
:10356000AC010E947B296B017C01E0E2F0E0EC1BE6
:10357000FD0BA5E5B0E09B01AC010E947B294B014E
:103580005C019F01DF010E945D299B01AC010E944B
:1035900086299B01AC012C0D3D1D4E1D5F1DC501F3
:1035A000B4010E943529C22FD22F2A3228F4F3E029
:1035B0002F9F900111240DC025E530E02C1B31090F
:1035C000C901880F991F280F391F37FF02C02F5FCD
:1035D0003F4F35952795C22FC095F12C85E5E82EF4
:1035E000ED1A80911301F816C8F4F1FC02C08E2D7B
:1035F00001C08D2F909111012F2D30E0290F311D29
:10360000A901440F551F240F351F27543D4F4C2F40
:103610006091B6020E944B17F394E3CF0E94CA1741
:10362000F8018481811102C091E003C0803219F455
:103630009FEF90930C0190910C01890FF801848306
:10364000DF91CF911F910F91FF90EF90DF90CF907E
:10365000BF90AF909F908F9008950F931F93CF933B
:10366000DF93EC0100E010E080911301282F30E09F
:103670000217130724F5909111019801290F311DAC
:10368000A901440F551F240F351F27543D4F869520
:1036900090E04C81081719071CF4442331F002C054
:1036A000411103C04091B70201C040E06091B602F1
:1036B0008091B5020E944B170F5F1F4FD5CF0E941C
:1036C000CA178C8190E00196817099278C83DF91D5
:1036D000CF911F910F910895E4EBF2E080818E7FEE
:1036E000808360817181828193810E947017109222
:1036F00070022FEF80E792E0215080409040E1F788
:1037000000C000000C94CA176091B402669570E086
:103710004BE050E084E191E00E949A29892B19F452
:1037200081E0809370020E94C0219093690280938F
:10373000680208959091B40290FF35C09170811194
:1037400002C0926006C0853210F0986402C0880FF3
:10375000982B9093B402662351F06091B40270915B
:10376000B5028091B6029091B7020E9470176091E5
:10377000B402669570E04BE050E084E191E00E9475
:103780009A29892B19F01092700202C00E94841BA2
:1037900081E080936B024091B7026091B602809104
:1037A000B5020C946E190895682F9091B402969505
:1037B00081E0890F853208F081E00C949A1B81E04A
:1037C0000C94D41B682F9091B40296958FEF890FBB
:1037D00009F484E20C949A1B81E00C94E21B61E0F2
:1037E0000C949A1BE4EBF2E08081816080838695E3
:1037F0000C94EF1B8091B40280FD0C946C1B0C9414
:10380000F21B60E00C949A1B80916E0281112EC015
:103810000E94AB0E811104C00E94530F0E948217B8
:103820000E946C176093B4027093B5028093B60245
:103830009093B7026E7F61F40E9482170E946C170A
:103840006093B4027093B5028093B6029093B7026E
:103850000E945917109270028091B40280FF03C039
:1038600086950E94011C81E080936E0208950F935B
:103870001F93CF93DF9380917002882309F485C052
:1038800080916F02E091B402E695E81BE0936A0232
:10389000823049F4F0E0E655FE4FE491CE2FD0E0BF
:1038A00003E218E149C0863049F4F0E0E955FE4FE3
:1038B000E491CE2FD0E007E318E13EC0893051F407
:1038C000E695F0E0EC55FE4FE491CE2FD0E001E715
:1038D00019E132C08F3051F4E695F0E0EF55FE4F1C
:1038E000E491CE2FD0E00CEA19E126C0853149F4ED
:1038F000F0E0E256FE4FE491CE2FD0E008E21AE16C
:103900001BC0883181F0833239F4ECE9F1E0C591D4
:10391000D49107E418E110C0843251F4C4EFD1E02F
:103920000DE21BE109C0C8E2D0E00AE91AE104C0D7
:10393000C0EDD7E007E417E180916B02882361F0C6
:1039400010926B020E94C0219093690280936802DA
:1039500010926D0210926C020E94C021E0916802E8
:10396000F09169028E1B9F0B8F3F9F4770F4EC0F05
:10397000FD1FF0936902E093680288E692E0F80187
:10398000DF91CF911F910F910994DF91CF911F91FA
:103990000F910895882311F0FA0101C0FB010994E9
:1039A000CF93DF93C82FD62F0E9491178C1740F02A
:1039B0000E9491178D1720F4DF91CF910C94DF1B9B
:1039C0008C2FDF91CF910C94EF1B1F93CF93DF933C
:1039D000FB011281112309F4BCC0EC010E94C20D4D
:1039E0008272CD3CFCE5DF0709F497C008F043C0C4
:1039F000C73CECE5DE0709F47CC0D8F4C43C9CE588
:103A0000D90709F46AC038F4C33CDC4509F0A4C006
:103A10000E94FA1BA0C0C53C9CE5D90709F462C00E
:103A2000C63CDC4509F098C04FE259E162E279E119
:103A30005DC0CA3CFCE5DF0709F465C070F4C83C12
:103A4000ECE5DE0709F45AC0C93CDC4509F084C046
:103A50004EE359E16DE479E149C0CB3C9CE5D907DF
:103A600009F456C0CC3CDC4509F076C044EC57E183
:103A70006DEA77E13BC0C23DFCE5DF0709F45AC0BF
:103A800098F4CF3C9CE5D90709F44EC008F44AC02D
:103A9000C03DFCE5DF0709F44AC0C13DDC4509F043
:103AA0005BC06EE089E04EC0C53D9CE5D90709F4D6
:103AB00047C050F4C33DFCE5DF07F9F1C43DDC45E8
:103AC00009F04AC088E142C0C63D9CE5D907E9F14A
:103AD000CE35DD4509F43FC03FC04CEE5BE16FEDF4
:103AE0007BE104C04FED5BE16CEE7BE10E94CA1C00
:103AF00032C042E259E16FE279E1F8CF4DE459E199
:103B00006EE379E1F3CF4BE659E16CE579E1EECF75
:103B10004CE559E16BE679E1E9CF4DEA57E164EC18
:103B200077E1E4CF81E012C065E082E00BC068E09D
:103B300086E008C064E18FE005C067E185E102C06E
:103B400062E289E10E94D01C06C083E20E94EF1B62
:103B500002C011E001C010E0812FDF91CF911F91D1
:103B60000895519A2BB12D7F3BB132604FB7F89435
:103B7000FC01CB01880F991F680F791F6E0F7F1F03
:103B8000E617F70789F0819198E03BB9000000C083
:103B900087FF2BB9880F000000C000C000C02BB900
:103BA00000C09A9591F7ECCF4FBF8FE594E0019755
:103BB000F1F700C000000895CF93DF93EC01FB0103
:103BC0008281882309F426C1C430FDE5DF0760F453
:103BD000CB3F9CE5D90768F49E0122503C45243137
:103BE000310508F018C105C0C236EDE5DE0709F061
:103BF00012C10E94BE0E9093A3028093A202C03114
:103C0000FCE5DF0709F4CAC008F041C0C8309CE5F4
:103C1000D90709F4A4C0F0F4C430FCE5DF0709F4C7
:103C20008CC068F4C2309CE5D90709F482C0C33067
:103C3000DC4509F0E5C08091A2028260DFC0C63099
:103C4000FCE5DF0709F483C008F085C08091A2027B
:103C50008860D4C0CC309CE5D90709F490C068F4E2
:103C6000CA30FCE5DF0709F47EC008F084C00E947A
:103C7000E9078091A2028068C1C0CE309CE5D907D7
:103C800009F481C008F086C08091A20294C0CD3FA3
:103C9000FCE5DF0709F47BC038F5C4319CE5D907A2
:103CA00009F49AC058F4C231FCE5DF0709F47AC080
:103CB00008F07EC08091A2028F7BA0C0CB3F9CE524
:103CC000D907F1F108F03FC0C531DC4509F098C0D3
:103CD0008091A20282FB222720F991E0922790FB9B
:103CE00082F990FB83F98AC0C1308DE5D80709F4C9
:103CF00067C050F48091A302CF3FECE5DE07C1F12D
:103D000008F05BC08D7F65C0C3308DE5D80709F42E
:103D100071C008F46DC0C236DD4509F071C08091F4
:103D2000A20284FB222720F991E0922790FB84F9DC
:103D300065C08091A202816061C08091A20216C01C
:103D40008091A30216C08091A302826042C080913C
:103D5000A202806153C08091A20280624FC0809114
:103D6000A20280644BC08091A2028860846046C039
:103D7000826081602EC08091A2028E7F3FC08091C0
:103D8000A2028D7F3BC08091A202877F37C08091C5
:103D9000A30214C08091A2028F7E30C08091A20243
:103DA0008F7D2CC00E94E9078091A2028F7726C0E8
:103DB0008091A202877F8B7F21C08D7F8E7F09C07B
:103DC0008091A302982F909591708E7F892B90FB04
:103DD00081F98093A30214C00E94E9078091A20296
:103DE00087FB222720F991E0922790FB87F906C0F4
:103DF00081E001C080E00E94550F02C08093A202C2
:103E00008091A2029091A3020E94CF0E0E94E90726
:103E100080E001C081E0DF91CF910895CF93DF93DF
:103E200086319C4541F5EB010E94C20D982F8A8195
:103E30002091020130910301882379F09A7A81E080
:103E400009F480E080937102911102C069E201C01F
:103E500065E3C9010E9404210AC0809171028111A9
:103E600002C069E201C065E3C9010E940F210E94FE
:103E7000140E80E001C081E0DF91CF9108950F938F
:103E80001F93CF93DF93C42FD22FFC01828188230D
:103E9000C9F0409374020E94C021909373028093F2
:103EA000720280E28C0F883008F057C0C77081E042
:103EB00001C0880FCA95EAF7DF91CF911F910F914A
:103EC0000C943B0580917402481330C080917202BB
:103ED000909173020E94D821883C910538F510E238
:103EE0001D0FCD17B9F080E28C0F883040F4C770F9
:103EF00081E001C0880FCA95EAF70E944205183098
:103F000028F581E09D2F977001C0880F9A95EAF7F8
:103F10000E943B05802F0E9432051830F0F4D770C4
:103F200081E001C0880FDA95EAF70AC080E28C0FC1
:103F3000883098F4C77081E001C0880FCA95EAF70D
:103F4000DF91CF911F910F910C944205802FDF914B
:103F5000CF911F910F910C943205DF91CF911F915A
:103F60000F9108950F939C01CB01243F4CE534073A
:103F700031F188F4293DFCE53F07D9F02A3D4CE5B5
:103F8000340779F1283D3C45A9F506E221EE41EEE2
:103F900068ED7CE52BC0263FFCE53F07E1F0A8F08B
:103FA000273F3C4539F507E225EE46EE67EF7CE515
:103FB0001DC007E225EE45EE69ED7CE517C006E27F
:103FC00021EE40EE64EF7CE511C007E225EE44EE01
:103FD00065EF7CE50BC006E221EE42EE66EF7CE584
:103FE00005C008E221E045EE6AED7CE50E943F1F36
:103FF00080E008C0FC018281882319F010927402CD
:1040000001C081E00F9108959093C3018093C20194
:10401000089590937A02809379020895E09179024D
:10402000F0917A02309721F00190F081E02D09940F
:1040300080E00895E0917902F0917A02309799F04A
:1040400020912B01222359F02091A20227FF07C0C3
:10405000DC012C9111962C93119726E02C93028071
:10406000F381E02D09940895E0917902F0917A02AC
:10407000309739F022E0DC012C930480F581E02DAB
:104080000994089520917702309178022817390712
:1040900071F09093780280937702E0917902F09129
:1040A0007A02309721F00680F781E02D0994089577
:1040B00020917502309176022817390771F090939C
:1040C000760280937502E0917902F0917A0230973E
:1040D00021F00084F185E02D09940895FC013296C9
:1040E00080912B01882331F08091A20287FF02C0CA
:1040F0009EE101C096E080E0915028F021912223BA
:10410000D9F38F5FF9CF0895662351F120912B01E8
:104110002223E9F02091A20227FF19C0462F4695DD
:10412000469546954E31E0F4677021E030E002C0DC
:10413000220F331F6A95E2F7FC01E40FF11D828123
:1041400090E02823392381E0232B69F409C0FC0186
:10415000329608962191621729F0E817F907D1F7EE
:1041600080E0089581E008959C01FC0132969FEF64
:1041700080E04191461789F09F3F19F4411101C039
:10418000982F8F5F8630A9F79F3F39F0F901E90F2B
:10419000F11D97FDFA956283089508959C012A5FA9
:1041A0003F4FFC014281461301C0128201968217E3
:1041B0009307B9F70895262F2695269526952E3133
:1041C00068F4FC01E20FF11D677021E030E001C0EE
:1041D000220F6A95EAF78281282B22830895262FE1
:1041E0002695269526952E3170F4FC01E20FF11DDF
:1041F000677021E030E001C0220F6A95EAF7209550
:10420000828128232283089520912B01222329F0E3
:104210002091A20227FD0C94DB200C94B420209165
:104220002B01222329F02091A20227FD0C94EF20DC
:104230000C94CE2020912B01FC013296222331F0E8
:104240008091A20287FF02C08EE101C086E0DF01FB
:104250001D928A95E9F7089508950C942C2183E026
:1042600080937B020C942D21811102C081E001C05A
:1042700082E080937B020C942D210C94342181E008
:1042800080937B020C942D210C943F210895809102
:10429000DF02843031F10E94320310927C0220E46C
:1042A00088E190E00FB6F894A895809360000FBE67
:1042B0002093600083B7817F846083BF83B7816070
:1042C00083BF7894889583B78E7F83BF0FB6F894A9
:1042D000A8958091600088618093600010926000D2
:1042E0000FBE089508950C947221CF930E947321FC
:1042F0000E9481130E947221C0E08C2F0E94AB1299
:10430000892B29F4CF5FC430C1F780E001C081E080
:10431000CF9108950E94E9070C94A2031F920F9277
:104320000FB60F9211248F939F93AF93BF938091F9
:104330007C02811113C08091D7029091D802A09184
:10434000D902B091DA024196A11DB11D8093D70226
:104350009093D802A093D902B093DA02BF91AF91A3
:104360009F918F910F900FBE0F901F90189582E034
:1043700084BD93E095BD9AEF97BD80936E0008953C
:104380002FB7F8948091D7029091D802A091D902CA
:10439000B091DA022FBF08952FB7F8946091D70239
:1043A0007091D8028091D9029091DA022FBF0895BE
:1043B0009C014FB7F8948091D7029091D802A091B8
:1043C000D902B091DA024FBF821B930B0895789403
:1043D0001F920F920FB60F9211248F939F93AF935A
:1043E000BF938091D7029091D802A091D902B09149
:1043F000DA020196A11DB11D8093D7029093D802D5
:10440000A093D902B093DA02BF91AF919F918F919F
:104410000F900FBE0F901F90189587E797E7909326
:104420000108809300089AE088E10FB6F894A895F7
:10443000809360000FBE90936000FFCF8091A00238
:104440000895089522E02093E9002FEF3091E800CD
:10445000215035FD06C035ED3A95F1F700002111E8
:10446000F5CF2091E80025FF0BC040E050E066E06A
:1044700070E00E9461248091E8008E778093E800CC
:104480000895CF93DF9320912B01222339F02091BF
:10449000A20227FF03C060E222E002C068E021E040
:1044A0002093E9002FEF3091E800215035FD06C040
:1044B00035ED3A95F1F700002111F5CF2091E80094
:1044C00025FF1DC0EC0180912B01811105C040E04A
:1044D00050E068E070E003C070E040E050E0CE01E2
:1044E0000E9461248091E8008E778093E80080E24A
:1044F000FE01A0E8B2E001900D928A95E1F7DF910C
:10450000CF91089580937D0270937F0260937E0225
:104510008091DF02843001F582E08093E9008FEF23
:104520009091E800815095FD06C095ED9A95F1F7C0
:1045300000008111F5CF8091E80085FF0DC040E0BB
:1045400050E063E070E08DE792E00E94612480918A
:10455000E8008E778093E8000895BC0184E00C9415
:104560008222BC0183E00C9482228091DE028111C0
:1045700009C00E94F2250E944F268091E2008460CB
:104580008093E20008951092DE0208950C94442175
:104590006091DB0281E0611101C080E00C942F2169
:1045A0009091DF0281E0943009F080E06091DB02BD
:1045B0000C94342142E061EC81E00E946B2542E2E0
:1045C00061EC82E00E946B259091DF0281E09430E3
:1045D00009F080E06091DB020C943D218091E102C2
:1045E000833009F461C030F4813071F0823009F415
:1045F0009AC008958A3009F486C08B3009F46CC0E3
:10460000893009F0A8C020C08091E002813A09F009
:10461000A2C08091E800877F8093E8008091E40247
:104620009091E502892B21F460E280E892E003C0DA
:1046300060E080E090E070E00E94AC248091E800AF
:104640008B778093E80008958091E002813209F031
:1046500082C08091E4029091E502029708F07BC04D
:104660008091E800877F8093E8008091E80082FDD8
:1046700005C08091DF028111F8CF6DC02091F30059
:104680008091F20090E0922B029731F48091F1003A
:10469000813011F0863021F48091F1008093A002E6
:1046A0008091E8008B7753C08091E002813A09F055
:1046B00052C08091E4029091E502892B09F04BC031
:1046C0008091E800877F8093E8008091E80080FF78
:1046D000FCCF80912B0136C08091E0028132D9F568
:1046E0008091E4029091E502892BA9F58091E80080
:1046F000877F8093E8000E94A0258091E20280934A
:104700002B010C94E9078091E002813221F5809120
:10471000E800877F8093E8000E94A0258091E30253
:104720008093A10208958091E002813AA1F48091E2
:10473000E800877F8093E8008091E80080FFFCCF4D
:104740008091A1028093F1008091E8008E778093A0
:10475000E8000C94A025089584B7877F84BF0FB626
:10476000F894A89580916000886180936000109211
:1047700060000FBE90E080E80FB6F894809361006F
:10478000909361000FBE0C943F210E94F2250E947D
:104790004F26E2EEF0E080818460808378940C9470
:1047A000E4288FE191E00C9409208091DF028530AC
:1047B000A9F48091DF02853079F40E94472180912D
:1047C000DD028823B1F30E947521882391F30E94B2
:1047D0004B240E94E907EDCF0C948A210895089597
:1047E0000C94F223292F332723303105C9F060F4CC
:1047F0002130310581F02230310509F044C08BE3CE
:1048000090E02BED33E043C021323105E1F022325C
:10481000310549F138C082E190E026E134E037C04B
:1048200099278130910549F028F0029761F5E3EB73
:10483000F3E005C0E7EDF3E002C0E1ECF3E08491C2
:1048400090E09F0124C06115710541F06130710550
:10485000D1F489E090E026E034E019C089E090E0EE
:104860002DEE33E014C06115710541F06130710522
:1048700051F486EB90E028E234E009C080E490E057
:104880002EED34E004C080E090E020E030E0FA015A
:1048900031832083089580E189BD82E189BD09B417
:1048A00000FEFDCF8091D8008F7D8093D80080914D
:1048B000E00082608093E0008091E00081FDFCCF09
:1048C0000895CF92DF92EF92FF920F931F93CF93B1
:1048D000DF93EC018B017A010E94BF25811133C067
:1048E000E114F10439F0F70180819181081B190B63
:1048F000C80FD91FC12CD12C0115110519F18091B8
:10490000E80085FD16C08091E8008E778093E8006E
:10491000E114F10449F0F70180819181C80ED91E9C
:10492000D182C08285E00FC00E94BF25882321F379
:104930000AC089918093F10001501109FFEFCF1A4D
:10494000DF0ADACF80E0DF91CF911F910F91FF90C6
:10495000EF90DF90CF9008952091E6023091E7022A
:104960002617370748F06115710539F42091E800E2
:104970002E772093E80001C0B901FC0120E0611509
:10498000710579F18091DF028823F1F18530F1F131
:104990008091E80083FD3CC08091E80082FD2EC03C
:1049A0008091E80080FFEBCF2091F3008091F2002E
:1049B00090E0922B6115710551F08830910538F423
:1049C00021912093F100615071090196F3CF21E00C
:1049D000089709F020E08091E8008E778093E80046
:1049E000CECF2111CFCF0AC08091DF02882361F0A2
:1049F000853061F08091E80083FD0AC08091E80075
:104A000082FFF2CF80E0089582E0089583E0089568
:104A100081E008952091E6023091E70226173707DA
:104A200048F06115710539F42091E8002E77209344
:104A3000E80001C0B901FC0120E06115710591F1A8
:104A40008091DF02882309F440C0853009F43FC01B
:104A50008091E80083FD3DC08091E80082FD2FC079
:104A60008091E80080FFE9CF2091F3008091F2006F
:104A700090E0922B6115710559F08830910540F452
:104A800024912093F1003196615071090196F2CF83
:104A900021E0089709F020E08091E8008E7780936C
:104AA000E800CBCF2111CCCF0AC08091DF02882350
:104AB00061F0853061F08091E80083FD0AC080914B
:104AC000E80082FFF2CF80E0089582E0089583E05D
:104AD000089581E00895982F973068F59093E90044
:104AE000981739F07091EC002091ED005091F00092
:104AF00003C0242F762F50E021FD02C09F5FECCF32
:104B00003091EB003E7F3093EB003091ED003D7F24
:104B10003093ED003091EB0031603093EB007093F7
:104B2000EC002093ED005093F0002091EE0027FD63
:104B3000E5CF80E008958F708093E90081E00895CB
:104B40008091E00287FF11C08091E80082FD05C0DE
:104B50008091DF028111F8CF11C08091E8008B773E
:104B60000BC08091DF02882349F08091E80080FF2C
:104B7000F8CF8091E8008E778093E8000895209127
:104B8000E4003091E50095E64091EC00842F8170BF
:104B900040FF23C08091E80080FD1DC08091DF02AE
:104BA000882399F0853099F08091EB0085FD11C044
:104BB0004091E4005091E5002417350729F3915006
:104BC00011F09A01E1CF84E0089582E0089583E036
:104BD000089581E0089580E008954091E80042FF43
:104BE000DDCF08950E9460260E946826E0EEF0E086
:104BF000808181608083E8EDF0E080818F77808321
:104C000019BCA7EDB0E08C918E7F8C9380818F7E54
:104C100080831092DE0208950F931F93CF93DF934A
:104C20000E9460260E946826C8EDD0E088818F77B8
:104C3000888388818068888388818F7D888319BC78
:104C40001092DF021092DB021092DD021092DC0261
:104C500000EE10E0F80180818B7F80838881816085
:104C6000888342E060E080E00E946B25E1EEF0E0A6
:104C700080818E7F8083E2EEF0E08081816080839E
:104C8000808188608083F80180818E7F8083888125
:104C900080618883DF91CF911F910F910895E8ED96
:104CA000F0E080818F7E8083E7EDF0E0808181609D
:104CB000808384E082BF81E08093DE020C940C2626
:104CC000E8EDF0E080818E7F80831092E20008950D
:104CD0001092DA001092E10008951F920F920FB621
:104CE0000F9211242F933F934F935F936F937F9372
:104CF0008F939F93AF93BF93EF93FF938091E100C6
:104D000082FF0BC08091E20082FF07C08091E1002A
:104D10008B7F8093E1000E94E3288091DA0080FF7E
:104D20001FC08091D80080FF1BC08091DA008E7F69
:104D30008093DA008091D90080FF0DC080E189BDA9
:104D400082E189BD09B400FEFDCF81E08093DF02DE
:104D50000E94B52205C019BC1092DF020E94C32236
:104D60008091E10080FF19C08091E20080FF15C0B2
:104D70008091E2008E7F8093E2008091E20080616A
:104D80008093E2008091D80080628093D80019BCA3
:104D900085E08093DF020E94C8228091E10084FFB9
:104DA00030C08091E20084FF2CC080E189BD82E1A7
:104DB00089BD09B400FEFDCF8091D8008F7D80931E
:104DC000D8008091E1008F7E8093E1008091E20025
:104DD0008F7E8093E2008091E20081608093E20008
:104DE0008091DB02882311F084E007C08091E3000A
:104DF00087FD02C081E001C083E08093DF020E9452
:104E0000D0228091E10083FF29C08091E20083FFDE
:104E100025C08091E100877F8093E10082E080934C
:104E2000DF021092DB028091E1008E7F8093E1002F
:104E30008091E2008E7F8093E2008091E2008061A9
:104E40008093E20042E060E080E00E946B25809168
:104E5000F00088608093F0000E94C622FF91EF91DD
:104E6000BF91AF919F918F917F916F915F914F9182
:104E70003F912F910F900FBE0F901F9018951F928A
:104E80000F920FB60F9211242F933F934F935F937E
:104E90006F937F938F939F93AF93BF93CF93DF9342
:104EA000EF93FF93C091E900CF708091EC00D82F71
:104EB000D17080FDD0E81092E9008091F000877FEA
:104EC0008093F00078940E9483271092E9008091EB
:104ED000F00088608093F000CD2BCF70C093E90084
:104EE000FF91EF91DF91CF91BF91AF919F918F9102
:104EF0007F916F915F914F913F912F910F900FBED6
:104F00000F901F9018951F93CF93DF93CDB7DEB707
:104F1000AA970FB6F894DEBF0FBECDBFE0EEF2E069
:104F20008091F100819322E0E83EF207C9F70E94E8
:104F3000EE228091E80083FF2EC18091E0029091E3
:104F4000E102492F50E04A30510508F024C1FA012E
:104F5000EC58FF4F0C945729803821F0823809F023
:104F60001AC108C08091DC029091DD02992389F07A
:104F700082600FC08091E4028F70873008F00BC10F
:104F80008093E9008091EB0085FB882780F91092DF
:104F9000E9009091E800977F9093E8008093F100FA
:104FA0001092F100D1C0282F2D7F09F0F4C0882382
:104FB00019F0823061F0EFC08091E202813009F097
:104FC000EAC0933009F080E08093DD022EC080912A
:104FD000E20281112AC08091E4028F702FEF280F26
:104FE000263008F0D8C08093E9002091EB0020FF24
:104FF0001CC0933021F48091EB00806214C090912A
:10500000EB0090619093EB0021E030E0A90102C039
:10501000440F551F8A95E2F74093EA001092EA0088
:105020008091EB0088608093EB001092E900809102
:10503000E800877F8093E8000E94A025ACC0811122
:10504000AAC01091E2021F778091E3008078812B43
:105050008093E3008091E800877F8093E8000E94BE
:10506000A0258091E80080FFFCCF8091E30080685C
:105070008093E300111102C082E001C083E08093BD
:10508000DF0289C08058823008F085C08091E2023A
:105090009091E3028C3D53E0950779F583E08A8394
:1050A0008AE289834FB7F894DE01139620E03EE050
:1050B00051E2E32FF0E050935700E49120FF03C04A
:1050C000E295EF703F5FEF708E2F90E0EA3010F0C6
:1050D000C79601C0C0968D939D932F5F243149F7E9
:1050E0004FBF8091E800877F8093E8006AE270E01C
:1050F000CE0101960E94AC2416C06091E40270912A
:10510000E502AE014F5F5F4F0E94F023BC01892B87
:1051100009F441C09091E800977F9093E80089815D
:105120009A810E940A258091E8008B778093E8009D
:1051300032C0803881F58091E800877F8093E80055
:105140008091DB028093F1008091E8008E7772CF2E
:10515000811121C08091E2029091E3029927029788
:10516000D4F48091E800877F8093E8008091E20288
:105170008093DB020E94A0258091DB02811106C092
:105180008091E30087FD02C081E001C084E080934C
:10519000DF020E94DA228091E80083FF0AC080913A
:1051A000E800877F8093E8008091EB008062809325
:1051B000EB00AA960FB6F894DEBF0FBECDBFDF910D
:1051C000CF911F9108950895CF938091DF02882396
:1051D000A1F0C091E900CF709091EC00892F81700F
:1051E00090FD80E8C82B1092E9008091E80083FDD3
:1051F0000E948327CF70C093E900CF91089587FB69
:10520000082E062687FD819567FD61950E948E29EF
:105210000EF4919507FC81950895AA1BBB1B51E1E3
:1052200007C0AA1FBB1FA617B70710F0A61BB70B16
:10523000881F991F5A95A9F780959095BC01CD01BB
:10524000089597FB072E16F4009407D077FD09D038
:105250000E940D2907FC05D03EF4909581959F4F43
:105260000895709561957F4F0895A1E21A2EAA1BAB
:10527000BB1BFD010DC0AA1FBB1FEE1FFF1FA21706
:10528000B307E407F50720F0A21BB30BE40BF50B03
:10529000661F771F881F991F1A9469F7609570958C
:1052A000809590959B01AC01BD01CF010895EE0F53
:1052B000FF1F0590F491E02D09940E946529332386
:1052C00012F48A1B9B0B0C947629A29FB001B39F0A
:1052D000C001A39F700D811D1124911DB29F700DFF
:1052E000811D1124911D08950E946529B7FF08951D
:1052F000821B930B08950E946529A59F900DB49F72
:10530000900DA49F800D911D11240895B7FF0C945A
:105310007B290E947B29821B930B0895991B79E0BE
:1053200004C0991F961708F0961B881F7A95C9F735
:1053300080950895FC014150504030F001900616D0
:10534000D1F73197CF010895882799270895FB0158
:10535000DC0104C08D910190801921F4415050402E
:10536000C8F7881B990B0895F999FECF92BD81BDAE
:10537000F89A992780B50895A6E1B0E044E050E09E
:105380000C94EE29A8E1B0E042E050E00C94EE2944
:10539000262FF999FECF92BD81BDF89A019700B4EE
:1053A000021639F01FBA20BD0FB6F894FA9AF99A8E
:1053B0000FBE08950396272F0E94C9290E94C8296D
:1053C000252F0E94C929242F0C94C9290196272F23
:1053D0000E94C9290C94C829DC01CB01FC01F99970
:1053E000FECF06C0F2BDE1BDF89A319600B40D9231
:0C53F00041505040B8F70895F894FFCFEA
:1053FC00C80020022808641E140A321E0101020093
:10540C000A000A0A01191A1B1C1D1E1F2021221E2C
:10541C002241222222B122AD22212201E200E90006
:10542C00EA00B500B600B700CD008301CC008A01BC
:10543C009201940121022302240225022602270252
:10544C002A02B300B4006F007000818283E200E98D
:10545C0000EA00B500B600B700CD008301CC008A8D
:10546C000192019401210223022402250226022723
:10547C00022A02B300B4006F00700081828397345B
:10548C0036323331F7F6F5F4946635C60001020274
:10549C0002020606060909090909090F0F0F0F0F69
:1054AC000F1515151819191919191919191919236D
:0254BC002400CA
:00000001FF
